:060000000A128A1110280B
:10000800FE00030E83160313AD000A08AE007F0836
:10001800AF000A128A15AA2D0A128A11132883160C
:100028000313B001B10183010A128A11E12F83126F
:1000380003133D088039C2004208C7003D08C200CA
:100048004207C3004308CD00BC1F2B282C282D28AD
:100058004D144D0803193128322841284D0A031D33
:10006800362837283F280030BD000030BC0000305B
:10007800BB000030BA00BC1749280030BD00003072
:10008800BC000030BB000030BA0041088039C20013
:100098004208C7064108C2004207C3004308CC0013
:1000A800C01F5728582859284C144C0803195D2894
:1000B8005E286D284C0A031D622863286B280030CF
:1000C800C1000030C0000030BF000030BE00C017C3
:1000D80075280030C1000030C0000030BF0000307B
:1000E800BE004C08031979287A287F284D08031D7B
:1000F8007E287F2888280030BD000030BC000030F2
:10010800BB000030BA007B2B3A08C2004208F0005E
:1001180040080A128A153A250A128A1171088312B0
:100128000313D3007008D2005208C200C301C401EF
:10013800C5014508CB004408CA004308C900420865
:10014800C8005308C200C301C401C5014508D10055
:100158004408D0004308CF004208CE003B08C20044
:100168004208F0003F080A128A153A250A128A1135
:10017800710883120313D3007008D2005208C2001A
:10018800C301C401C5014208C80743080311031885
:10019800013E0319D028C907440803110318013E7A
:1001A8000319D728CA07450803110318013E031984
:1001B800DE28CB075308C200C301C401C5014208A9
:1001C800CE07430803110318013E0319EC28CF0793
:1001D800440803110318013E0319F328D007450802
:1001E80003110318013E0319FA28D1073C08C2007D
:1001F8004208F0003E080A128A153A250A128A11A6
:10020800710883120313D3007008D2005208C20089
:10021800C301C401C5014208C807430803110318F4
:10022800013E03191829C907440803110318013EA0
:1002380003191F29CA07450803110318013E0319AA
:100248002629CB075308C200C301C401C5014208CF
:10025800CE07430803110318013E03193429CF07B9
:10026800440803110318013E03193B29D007450828
:1002780003110318013E03194229D1070830C200AF
:100288000310C80DC90DCA0DCB0DC20B44293B087C
:10029800C2004208F0003E080A128A153A250A12DE
:1002A8008A11710883120313D3007008D200520810
:1002B800C2005308C300C401C5014208C807430867
:1002C80003110318013E03196A29C90744080311D9
:1002D8000318013E03197129CA07450803110318B9
:1002E800013E03197829CB073A08C2004208F000FA
:1002F8003F080A128A153A250A128A1171088312D0
:100308000313D3007008D2005208C2005308C30078
:10031800C401C5014208C807430803110318013E78
:1003280003199729C907440803110318013E031943
:100338009E29CA07450803110318013E0319A52978
:10034800CB070830C2000310C80DC90DCA0DCB0D6C
:10035800C20BA7293A08C2004208F0003E080A1258
:100368008A153A250A128A11710883120313D300D9
:100378007008D2005208C2005308C300C401C50166
:100388004208C807430803110318013E0319CD2981
:10039800C907440803110318013E0319D429CA07E1
:1003A800450803110318013E0319DB29CB073B0855
:1003B800C2004208F00040080A128A153A250A12BB
:1003C8008A11710883120313D3007008D2005208EF
:1003D800C2005308C300C401C5014208CE07430840
:1003E80003110318013E0319FA29CF074408031122
:1003F8000318013E0319012AD00745080311031801
:10040800013E0319082AD1073C08C2004208F0003F
:100418003F080A128A153A250A128A1171088312AE
:100428000313D3007008D2005208C2005308C30057
:10043800C401C5014208CE07430803110318013E51
:100448000319272ACF07440803110318013E03198B
:100458002E2AD007450803110318013E0319352A2F
:10046800D1073C08C2004208F00040080A128A1569
:100478003A250A128A11710883120313D3007008EF
:10048800D2005208C2005308C300C401C501083095
:100498000310C20DC30DC40DC50DFF3E031D4C2A2C
:1004A8004208CE07430803110318013E03195D2AC9
:1004B800CF07440803110318013E0319642AD00723
:1004C800450803110318013E03196B2AD107480890
:1004D800C2004908C3004A08C4004B08C5001830C8
:1004E8000310C50CC40CC30CC20CFF3E031D742AB8
:1004F8004208CE07430803110318013E0319852A51
:10050800CF07440803110318013E03198C2AD007AA
:10051800450803110318013E0319932AD10708302F
:10052800C2000310C80DC90DCA0DCB0DC20B952A08
:100538004D084C07C200C301C30D4208823ED200D9
:1005480043080318013EFF3ED300C72A0130C2000A
:100558000310CE0DCF0DD00DD10DC20BAC2ACB1F81
:10056800B62AB72AB82A4E140130C2000310C80DA3
:10057800C90DCA0DCB0DC20BBA2AFF30D20703181A
:10058800D30AFF30D307D01FCA2ACB2AAA2ACC0104
:10059800CB1FCF2AD02AEC2AFF304805C200FF30F3
:1005A8004905C300FF304A05C4007F304B05C5002C
:1005B80045084404430442040319E32AE42AE72AC9
:1005C800CC01CC0AEC2A4E1CEA2AEB2AEC2AE42AB3
:1005D8004C080319F02AF12A222B0130CE070030EB
:1005E80003180130CF07003003180130D00700305E
:1005F80003180130D107511C022B032B222B4E0864
:10060800C2004F08C3005008C4005108C50001309B
:10061800C600450DC50CC40CC30CC20CC60B0D2B73
:100628004508D1004408D0004308CF004208CE0056
:100638000130D2070318D30A0030D3075308803A91
:10064800FF0080307F02031D2B2BFF305202031C5A
:100658002E2B2F2B3A2B7F3083120313D10080309F
:10066800D0000030CF000030CE006F2B8312031370
:100678005308803AFF0080307F02031D452B01306C
:1006880052020318482B492B552B003083120313B1
:10069800D1000030D0000030CF000030CE00C701BC
:1006A8006F2B831203135208C2004208CD00FF309B
:1006B800CE05FF30CF057F30D0050030D1054D1C69
:1006C800662B672B682BD0174D08C2000310420C0D
:1006D800C3004308D1004708C2004208D1045108AA
:1006E800BD005008BC004F08BB004E08BA00080007
:1006F8008312031357088039DC005C08E4005708AC
:10070800DC005C07DD005D08E600D61F8C2B8D2B16
:100718008E2B661466080319922B932BA32B660A5B
:10072800031D972B982BA02B0030D7000030D60044
:100738000030D5000030D400D617D701AB2B0030DD
:10074800D7000030D6000030D5000030D4005B0858
:100758008039DC005C08E500650864060319B52BE0
:10076800B62BB72B64175B08DC005C07DD005D085F
:10077800E500DA1FC02BC12BC22B651465080319CD
:10078800C62BC72BD72B650A031DCB2BCC2BD42B01
:100798000030DB000030DA000030D9000030D8002B
:1007A800DA17DB01DF2B0030DB000030DA00003025
:1007B800D9000030D800660865020318E42BE52B41
:1007C800292C641FE82BE92BED2B8030DC005C081A
:1007D800E4066608DC005C08E7006508DC005C08E5
:1007E800E6006708DC005C08E5005408DC005C08EB
:1007F800E7005808DC005C08D4006708DC005C08E7
:10080800D8005508DC005C08E7005908DC005C08E3
:10081800D5006708DC005C08D9005608DC005C08D5
:10082800E7005A08DC005C08D6006708DC005C08B2
:10083800DA005708DC005C08E7005B08DC005C08AD
:10084800D7006708DC005C08DB00E7016508DC000E
:10085800DD015D08DF0066085C02DE00031CDF03C3
:100868005F08803AFF0080307F02031D3D2C1A305C
:100878005E02031C402C412C7E2C83120313570864
:10088800560455045404031D4A2C4C2C01304D2C9D
:100898000030DC005C08E7000030D7000030D600EC
:1008A8000030D5000030D4006508DC005C08E600A4
:1008B800862C671C602C612C6A2C6708DC000310EE
:1008C8005C0C0138DD005D08E7006C2C0310E70CB8
:1008D800541C6F2C702C712CE7170130DC00570D5D
:1008E800D70CD60CD50CD40CDC0B732C0130DC00E7
:1008F8005C08E6078312031365086602031C852C4F
:10090800862C5D2C641B892C8A2CD52C6608031D2B
:100918008E2C8F2C982C0030D7000030D600003059
:10092800D5000030D400032E5808D4075908031105
:100938000318013E0319A12CD5075A0803110318FF
:10094800013E0319A82CD6075B0803110318013EC2
:100958000319AF2CD707571CB22CB32C892D671C51
:10096800B62CB72CC02C6708DC0003105C0C0138CF
:10097800DD005D08E700C22C0310E70C541CC52CF1
:10098800C62CC72CE7170130DC00570DD70CD60C46
:10099800D50CD40CDC0BC92C0130DC005C08E60754
:1009A800892D5708803AFF005B08803A7F02031DB3
:1009B800E72C5A085602031DE72C59085502031D57
:1009C800E72C580854020318EA2CEB2C432DFF306F
:1009D800DC00FF30DD00FF30DE00FF30DF005808AC
:1009E800E0005908E1005A08E2005B08E3005408F7
:1009F800E0025508031C550F022D032DE10256088D
:100A0800031C560F082D092DE2025708031C570F27
:100A18000E2D0F2DE3026008DC0761080318610F33
:100A2800162D172DDD0762080318620F1C2D1D2DCA
:100A3800DE0763080318630ADF075F08D7005E084C
:100A4800D6005D08D5005C08D4008030DC005C0866
:100A5800E406E709E70A6708031D332D342D512DF5
:100A68000130D407003003180130D50700300318CF
:100A78000130D607003003180130D707512D580828
:100A8800D4025908031C590FD5025A08031C5A0FDF
:100A9800D6025B08031C5B0FD7025708560455049F
:100AA8005404031D582D592D852D6708031D5D2DF0
:100AB8005E2D852D0030D7000030D6000030D500DF
:100AC8000030D400032E0130DC000310D40DD50D06
:100AD800D60DD70DDC0B692DE71F732D742D752DE1
:100AE8005414671C782D792D7C2D0314E70D7E2D69
:100AF8000310E70D66080319822D832D852D01301B
:100B0800E602D61F882D892D672DE501E71F8D2D5B
:100B18008E2D9C2D67087F390319932D942D972DC1
:100B2800E501E50A9C2D541C9A2D9B2D9C2D942D96
:100B380065080319A02DA12DD52D0130D40700304B
:100B480003180130D507003003180130D6070030EC
:100B580003180130D707571CB22DB32DD52D5408D3
:100B6800DC005508DD005608DE005708DF000130BC
:100B7800E0005F0DDF0CDE0CDD0CDC0CE00BBD2DA6
:100B88005F08D7005E08D6005D08D5005C08D40071
:100B9800660A0319D02DD12DD52D0130DC005C0853
:100BA800E607660A0319D92DDA2DDF2D6608031D1D
:100BB800DE2DDF2DED2D0030D7000030D6000030BF
:100BC800D5000030D4006608031DEB2DEC2DED2D6B
:100BD800E401661CF02DF12DF32DD617F72D7F308B
:100BE800DC005C08D6056608DC0003105C0CDD0040
:100BF8005D08D700E41F012E022E032ED717080028
:100C08008312031327088039A8002808B100270891
:100C1800A8002807A9002908B800A61F142E152E19
:100C2800162E3814380803191A2E1B2E2B2E380AA4
:100C3800031D1F2E202E282E0030A7000030A600EE
:100C48000030A5000030A400A617A701332E0030FD
:100C5800A7000030A6000030A5000030A40023083B
:100C68008039A8002808B1062308A8002807A90089
:100C78002908B900A21F412E422E432E39143908E3
:100C88000319472E482E582E390A031D4C2E4D2E77
:100C9800552E0030A3000030A2000030A100003023
:100CA800A000A217A301602E0030A3000030A2000C
:100CB8000030A1000030A0002308220421042004F1
:100CC800031D672E682E812E0030A7000030A60075
:100CD8000030A5000030A4008030A6047F30A704AF
:100CE8003108A8002808A7042708A3002608A2009E
:100CF8002508A1002408A000E02F3808031D852E30
:100D0800862E8F2E0030A3000030A2000030A100F4
:100D18000030A000E02F3808A800A9012908AB007E
:100D280039082802AA00031CAB032A087F3EB20038
:100D38002B080318013E003EB3002708B000260820
:100D4800AF002508AE002408AD000030A700003031
:100D5800A6000030A5000030A4000030B700003025
:100D6800B6000030B5000030B400B901052F3908CD
:100D78000319BF2EC02EE02E0130A8000310AD0DC0
:100D8800AE0DAF0DB00DA80BC22E0130A800031098
:100D9800A40DA50DA60DA70DA80BCB2EB71FD52EFC
:100DA800D62ED72E24140130A8000310B40DB50D8B
:100DB800B60DB70DA80BD92E23083002031DEE2E51
:100DC80022082F02031DEE2E21082E02031DEE2EEF
:100DD80020082D02031CF12EF22E012F37172008B0
:100DE800AD022108031C210FAE022208031C220FAA
:100DF800AF022308031C230FB0020130A800280803
:100E0800B9071A303902031C0A2F0B2FBB2E3008E2
:100E18002F042E042D040319122F132F322F3414EC
:100E2800322F0130A8000310A40DA50DA60DA70DA3
:100E3800A80B172FB71F212F222F232F241401307F
:100E4800A8000310B40DB50DB60DB70DA80B252FCE
:100E5800FF30B2070318B30AFF30B307A61F352FB8
:100E6800362F152FB901B71F3A2F3B2F572FFF30B9
:100E78003405A800FF303505A900FF303605AA0063
:100E88007F303705AB002B082A04290428040319EE
:100E98004E2F4F2F522FB901B90A572F241C552F07
:100EA800562F572F4F2F390803195B2F5C2F8D2F83
:100EB8000130A407003003180130A50700300318DB
:100EC8000130A607003003180130A707271C6D2F33
:100ED8006E2F8D2F2408A8002508A9002608AA002F
:100EE8002708AB000130AC002B0DAB0CAA0CA90CE9
:100EF800A80CAC0B782F2B08A7002A08A6002908F5
:100F0800A5002808A4000130B2070318B30A00306E
:100F1800B3073308803AFF0080307F02031D962F05
:100F2800FF303202031C992F9A2FA82FFF3083120B
:100F38000313B2000030B3000030A7000030A60051
:100F48000030A5000030A400831203133308803A50
:100F5800FF0080307F02031DB32F013032020318D7
:100F6800B62FB72FC42F83120313B201B301003079
:100F7800A7000030A6000030A5000030A400B10191
:100F8800831203133208A8002808B800381CCD2F94
:100F9800CE2FD02FA617D42F7F30A8002808A6055B
:100FA8003808A8000310280CA9002908A700310850
:100FB800A8002808A704782E08000A128A156125B7
:0C0FC8000A128A11E62F0A128A11102862
:101A7400F800F401F5017008F200F3017208F600B1
:101A84007308F700781C472D482D4E2D7608F4076F
:101A94000318F50A7708F50701300310F60DF70D62
:101AA400FF3E031D4F2D0310F80C7808031D5B2D1A
:101AB4005C2D442D7508F1007408F00008008316AD
:101AC40003178801890120308316031385008312CC
:101AD40003138501831603130F088F3940388F00D1
:101AE4000F14183087008312031387011408F03988
:101AF40004389400141294168316031314179413C1
:101B0400831203138C11831603138C158B170B1775
:101B140007158714FF3092008312031397013F3097
:101B240097051708F0390C3897003D3095001708D1
:101B3400CF39103897008C100330920412158C1C86
:101B4400A42DA52DA12D8C108316031307110800B5
:101B5400831203138C1DAF2DB02DED2D83160313AB
:101B6400A501FF30AB002B08A6003D30A7000030D4
:101B7400A8007D30A9000030AA00831203131308C3
:101B84000A128A1594260A128A1583160313260844
:101B9400B1002508B0003108AC003008AB000310D8
:101BA400AC0CAB0C0310AC0CAB0C2B088312031362
:101BB40095008316031330080339AB00AB0E831270
:101BC40003131708831603132B06CF392B0683122E
:101BD400031397008C11831603132F08FF002E089C
:101BE4008A002D0E8300FE0E7E0E09000310831260
:101BF40003136A0D6B0D83160313A00020088312D0
:101C04000313ED006D08031D082E092E122E00305B
:101C1400EB000030EA000030E9000030E800932EC9
:101C2400680883160313A00083120313690883163C
:101C34000313A100831203136A0883160313A2007B
:101C4400831203136B0883160313A3001F300310BE
:101C5400A30CA20CA10CA00CFF3E031D292E2008EE
:101C6400A400240883120313EC00EA17FF30E805EC
:101C7400FF30E905FF30EA050030EB059630ED0250
:101C8400ED1F452E462E642E6D08803A973E0318AC
:101C94004C2E4D2E4E2E092E01300310EB0CEA0C67
:101CA400E90CE80CFF3E031D4F2E0130831603138D
:101CB400A000200883120313ED07031D622E632E78
:101CC4004E2E832E20306D02031C692E6A2E7E2E2A
:101CD400092E013083160313A0000310831203138B
:101CE400E80DE90DEA0DEB0D83160313A00B6F2E1F
:101CF400013083120313ED026D08031D822E832E1F
:101D04006B2E6C080319872E882E932EE809E90997
:101D1400EA09EB09E80A0319E90A0319EA0A0319AB
:101D2400EB0A080083120313EE008316031327083B
:101D3400F0002808F100F201F30100300A128A15BC
:101D440046270A128A15730883120313DB007208EC
:101D5400DA007108D9007008D80083160313270825
:101D64002902F0002808031C280A2A02F100F201C3
:101D7400F30100300A128A1546270A128A157308DD
:101D840083120313A7007208A6007108A500700847
:101D9400A4008316031325082602F000F101031C96
:101DA400F103F201F11BF2037208F30001300A128D
:101DB4008A1546270A128A15730883120313A3008F
:101DC4007208A2007108A1007008A0000A128A110A
:101DD40004260A128A15831203132308C100220859
:101DE400C0002108BF002008BE0083160313250885
:101DF400831203136E02F000F101031CF103F201DC
:101E0400F11BF2037208F30001300A128A15462707
:101E14000A128A15730883120313BD007208BC00EA
:101E24007108BB007008BA000A128A111B200A123A
:101E34008A15831203133D08D7003C08D6003B08DB
:101E4400D5003A08D4000A128A117C230A128A1592
:101E5400831203135708EB005608EA005508E900FB
:101E64005408E8000A128A15F8250A128A15831202
:101E74000313690883160313A60083120313680867
:101E840083160313A5000800F800780803194B2FE4
:101E94004C2F602FF31F4F2F502F602F7009FA0023
:101EA4007109FB007209FC007309FD00FA0A0319A9
:101EB400FB0A0319FC0A0319FD0A682F7308FD00C5
:101EC4007208FC007108FB007008FA0073087204C1
:101ED40071047004031D6F2F702F792F0030F300ED
:101EE4000030F2000030F1000030F000FF2F963097
:101EF400F4007408F9008B2F0130F4007408F9071A
:101F040001300310FD0CFC0CFB0CFA0CFF3E031D0E
:101F1400832FFE307D05031D902F912F7E2FAD2F33
:101F24000130F4007408F9070130FA07003003188F
:101F34000130FB07003003180130FC0700300318A0
:101F44000130FD0701300310FD0CFC0CFB0CFA0CF6
:101F5400FF3E031DA52FFF307D05031DB22FB32FB8
:101F6400922FBF2F0130F9020130F4000310FA0D53
:101F7400FB0DFC0DFD0DF40BB82FFC1BC22FC32F62
:101F8400C92F023079020318C82FC92FB42F79182A
:101F9400CC2FCD2FD52FFF30FA05FF30FB057F3036
:101FA400FC05FF30FD050310F90C7908F400F50178
:101FB400F601F70118300310F40DF50DF60DF70DC9
:101FC400FF3E031DDD2F7408FA047508FB04760830
:101FD400FC047708FD0478080319F12FF22FF72F7A
:101FE400F31FF52FF62FF72FFD177D08F3007C085C
:0C1FF400F2007B08F1007A08F000080001
:08400000FF3FFF3FFF3FFF3FC0
:04400E00D420FF3F7C
:00000001FF
